:020000040800F2
:1000000000200020FD03000841040008410400080E
:1000100000000000000000000000000000000000E0
:100020000000000000000000000000004104000883
:100030000000000000000000410400085D0300080B
:10004000410400084104000841040008410400087C
:10005000410400080D0B0008410400084104000899
:10006000410400084104000841040008410400085C
:10007000410400084104000841040008410400084C
:100080004104000841040008000000004104000889
:10009000410400084104000841040008410400082C
:1000A000410400084104000841040008410400081C
:1000B00041040008000000004104000800000000A6
:1000C0005FF808F180B584B000AF78603B1C0F3357
:1000D00000221A7006E03B1C0F333A1C0F321278D4
:1000E00001321A707B681B785A1E9341DBB27A6822
:1000F00001327A60002BEED13B1C0F331B78181CA9
:10010000BD4604B080BDC04680B582B000AF786007
:100110000A1CFB1C1A70FB1C1B78002B07D0094B18
:10012000084A5269111C7A680A435A6106E0054B75
:10013000044A52697968C9430A405A61BD4602B00F
:1001400080BDC0460010024080B582B000AF78602C
:100150000A1CFB1C1A70FB1C1B78002B07D0094BD8
:10016000084A9269111C7A680A439A6106E0054BB5
:10017000044A92697968C9430A409A61BD4602B04F
:1001800080BDC04600100240B0B582B000AF021C76
:100190003960FB1D1A70FB1D1B787F2B32D930494B
:1001A000FB1D1B781A1C0F231340083B98082C4A90
:1001B000FB1D1B781C1C0F232340083B9B080633A8
:1001C0009B00D3185B68FA1D1278141C032222408E
:1001D000D200FF24251C95402A1CD2431A403B68BC
:1001E0009C01FF231C40FB1D1B781D1C03232B407F
:1001F000DB00251C9D402B1C1A43831D9B00CB1844
:100200005A6029E0174BFA1D127852B2920815492C
:10021000F81D007840B28008C03080004158F81DB9
:100220000078041C03202040C000FF24251C8540CA
:10023000281CC043084039688C01FF210C40F91D7F
:1002400009780D1C03212940C900251C8D40291C5B
:100250000143C0329200D150BD4602B0B0BDC0468D
:1002600000ED00E000E100E080B582B000AF786012
:100270007A680E4B9A4201D9012312E00C4B7A683E
:100280001202120A013A5A6001235B42181C032130
:10029000FFF77AFF064B00229A60054B07221A608F
:1002A0000023181CBD4602B080BDC046FFFFFF0002
:1002B00010E000E080B582B000AF78607B68002B72
:1002C00001DC01237B607A680B4B9A4201DD0A4B0B
:1002D0007B600A48796800F0FDFF031C1A1C084B7C
:1002E0001A600848796800F0F5FF031C181CFFF736
:1002F000BBFFBD4602B080BDA086010040420F009A
:1003000018000020006CDC0280B584B000AF78607B
:10031000104B1A68FA239B009A4217DC0E4B1B689D
:10032000FB607B68FA2292005A430A4B1B68101C40
:10033000191C00F0CFFF031C7B60C046064B1A68F7
:10034000FB68D21A7B689A42F8DB00E0C046BD46E3
:1003500004B080BD180000203800002080B500AF38
:10036000034B1B685A1C024B1A60BD4680BDC04639
:100370003800002080B500AF002000F067FE0120AB
:1003800000F064FE0020012100F0BEFE00F084F8C1
:1003900000F006F800F056F800F090FBF8E7C046D1
:1003A00080B500AF104B1A68104B1B68D21A104B67
:1003B0009A4217DD0C4B1A680C4B1A600D4B1B78D8
:1003C0001A1C0D4B9200D358181C002100F0FAF8AB
:1003D000002000F077FE074B1B785A425341DAB2F7
:1003E000044B1A70BD4680BD380000203C00002040
:1003F000E70300001C00002000000020002103E0B3
:100400000A4B5B584350043109480A4B42189A4240
:10041000F6D3094A02E0002313600432074B9A42E4
:10042000F9D300F06DFCFFF7A5FF7047DC1300085F
:1004300000000020180000201800002044000020C8
:10044000FEE7000080B500AF104B1A68104B1B6828
:10045000D31A632B18DD0D4B1A680D4B1A600D4B28
:100460001B79002B06D0002000F0DCF8094B00229D
:100470001A7109E0074B1B7B002B05D0402000F0D0
:10048000D1F8044B00221A73BD4680BD380000200D
:10049000400000202000002080B582B000AFFA2389
:1004A0009B00181CFFF706FF3220FFF72DFF00F01E
:1004B000C5F980239B02181C0121FFF725FE80232C
:1004C000DB02181C0121FFF71FFE3B1CE022120279
:1004D0001A603B1C01221A713B1C00229A713B1CC2
:1004E00003225A713B1C0022DA71184A3B1C101C73
:1004F000191C00F027FB154AE0231B02101C191CD5
:1005000000F0F0FB032000F0D1F90520FFF7FCFE1E
:10051000032000F0CBF90120FFF7F6FE032000F0E6
:10052000C5F90120FFF7F0FE022000F0BFF901201D
:10053000FFF7EAFE282000F00DF90F2000F00AF97D
:1005400000F018F8BD4602B080BDC0460004004867
:1005500080B582B000AF021CFB1D1A70FB1D1B781A
:10056000802252421343DBB2181C00F0F3F8BD4660
:1005700002B080BD80B500AF012000F0EBF8BD46B1
:1005800080BDC04680B582B000AF021CFB1D1A7052
:10059000044AFB1D1B78101C191C00F013F8BD4603
:1005A00002B080BDB813000880B582B000AF021C55
:1005B000FB1D1A70FB1D1B78181C00F083F8BD464C
:1005C00002B080BD80B584B000AF78600A1CFB1C0F
:1005D0001A707B68181CFFF775FD031CFB60FB6835
:1005E000102B01DD1023FB60FB1C1B78002B0AD1B4
:1005F0000B4B7A681A600A4B01221A71FB68DAB257
:10060000074B5A7109E0064B7A689A60044B012245
:100610001A73FB68DAB2024B5A73BD4604B080BD50
:100620002000002080B584B000AF021CFB1D1A70B2
:10063000FB1D1B78181CFFF78BFF3B1C0B330022A4
:100640001A70FB1D1B78002B08D11D4B1B68FB602B
:100650003B1C0B331A4A52791A7007E0184B9B68FF
:10066000FB603B1C0B33164A527B1A703B1C0A334F
:1006700000221A701BE03A1C0A323B1C0B33127822
:100680001B789A4209D23B1C0A331B78FA68D318AC
:100690001B78181CFFF788FF02E02020FFF784FF7B
:1006A0003B1C0A333A1C0A32127801321A703B1C86
:1006B0000A331B780F2BDED9BD4604B080BDC0467F
:1006C0002000002080B582B000AF021CFB1D1A7014
:1006D0001F4A80239B01101C191C00F0F5FA1C4ACC
:1006E0008023DB01101C191C00F0FCFA00F0A6F8B6
:1006F000174A80231B02101C191C00F0E5FAFB1D91
:100700001B781B09DBB2181C00F0D0F8104A8023BC
:100710001B02101C191C00F0E5FA0D4A80231B0275
:10072000101C191C00F0D0FAFB1D1B78181C00F0DF
:10073000BDF8074A80231B02101C191C00F0D2FAD6
:10074000C04600F049F8031CFBD1BD4602B080BD95
:100750000004004880B582B000AF021CFB1D1A7077
:100760001C4AC023DB01101C191C00F0BBFA00F06E
:1007700065F8184A80231B02101C191C00F0A4FA0B
:10078000FB1D1B781B09DBB2181C00F08FF8114A07
:1007900080231B02101C191C00F0A4FA0D4A8023B0
:1007A0001B02101C191C00F08FFAFB1D1B78181C73
:1007B00000F07CF8074A80231B02101C191C00F073
:1007C00091FAC04600F008F8031CFBD1BD4602B008
:1007D00080BDC0460004004880B582B000AF00F084
:1007E0004BF8154A80239B01101C191C00F07AFA63
:1007F000114A8023DB01101C191C00F065FAFB1D57
:1008000000221A7000F0B6F8031C1A1CFB1D12011E
:100810001A7000F0AFF8031C191CFB1DFA1D1278AA
:100820000A431A70FB1D1B787F229343DBB2181C0E
:10083000BD4602B080BDC0460004004880B582B00D
:1008400000AF3B1CF02212011A603B1C01221A71FE
:100850003B1C00229A713B1C03225A713B1C002254
:10086000DA719023DA053B1C101C191C00F06AF9A0
:10087000BD4602B080BDC04680B582B000AF3B1C13
:10088000F02212011A603B1C00221A713B1C032249
:100890005A713B1C0122DA719023DA053B1C101CB3
:1008A000191C00F04FF9BD4602B080BD80B582B082
:1008B00000AF021CFB1D1A70FB1D1A7808231340A1
:1008C00008D09023DA0580231B01101C191C00F0AE
:1008D000FBF907E09023DA0580231B01101C191C8B
:1008E00000F000FAFB1D1A780423134008D090236F
:1008F000DA058023DB00101C191C00F0E5F907E085
:100900009023DA058023DB00101C191C00F0EAF9A3
:10091000FB1D1A780223134008D09023DA058023A8
:100920009B00101C191C00F0CFF907E09023DA059A
:1009300080239B00101C191C00F0D4F9FB1D1A78B1
:1009400001231340DBB2002B08D09023DA0580236B
:100950005B00101C191C00F0B7F907E09023DA05C2
:1009600080235B00101C191C00F0BCF9BD4602B0CE
:1009700080BDC04680B582B000AFFB1D00221A705A
:10098000294A80231B02101C191C00F09DF990239A
:10099000DA0580231B01101C191C00F071F9031CDF
:1009A00005D0FB1DFA1D127808210A431A70902306
:1009B000DA058023DB00101C191C00F061F9031C10
:1009C00005D0FB1DFA1D127804210A431A709023EA
:1009D000DA0580239B00101C191C00F051F9031C40
:1009E00005D0FB1DFA1D127802210A431A709023CC
:1009F000DA0580235B00101C191C00F041F9031C70
:100A000005D0FB1DFA1D127801210A431A70064A0F
:100A100080231B02101C191C00F064F9FB1D1B78BD
:100A2000181CBD4602B080BD0004004880B582B0ED
:100A300000AF021CFB1D1A70064BFA1D1278111C28
:100A40001F220A400121081C9040021C1A60BD466A
:100A500002B080BD00E100E080B582B000AF021CB2
:100A6000FB1D1A70074AFB1D1B78191C1F230B4026
:100A70000121081C9840031C191C8023D150BD463D
:100A800002B080BD00E100E080B582B000AF021C82
:100A9000FB1D1A70084AFB1D1B78191C1F230B40F5
:100AA0000121081C9840031C191CC0235B00D15075
:100AB000BD4602B080BDC04600E100E080B500AF99
:100AC0000F4B1B78002B18D00E4B1A680E4B1B686F
:100AD000D31AC72B11DD012000F0F4FA0020FFF734
:100AE00051FD074B00221A70012000F059FA052031
:100AF000FFF7CAFF0520FFF799FFBD4680BDC0463E
:100B000032000020380000203400002080B500AF03
:100B1000012000F025FA031C0CD00520FFF79CFFF4
:100B2000054B1A68054B1A60054B01221A7001200B
:100B300000F036FABD4680BD3800002034000020A9
:100B40003200002080B586B000AF786039600023A5
:100B50007B6100233B610023FB6000237B6188E015
:100B60007B690122101C9840031C3B613B681B6899
:100B70003A691340FB60FA683B699A4276D13B6858
:100B80001B79012B03D03B681B79022B39D17B6881
:100B90009B687A6952000321081C9040021CD243D2
:100BA0001A407B689A607B689B681A1C3B685B797B
:100BB000191C7B695B00081C9840031C1A437B6866
:100BC0009A607B689B889BB27A6992B20121081C6B
:100BD0009040021C92B2D24392B213409AB27B6808
:100BE0009A807B689B889AB23B689B79191C7B69C9
:100BF0009BB2081C9840031C9BB213439AB27B68BB
:100C00009A807B681B687A6952000321081C904017
:100C1000021CD2431A407B681A607B681B681A1C4E
:100C20003B681B79191C7B695B00081C9840031CFE
:100C30001A437B681A607B68DB687A6992B252005B
:100C40000321081C9040021CD2431A407B68DA60E2
:100C50007B68DB681A1C3B68DB79191C7B695B00CD
:100C6000081C9840031C1A437B68DA607B690133D7
:100C70007B617B690F2B00D872E7BD4606B080BD53
:100C800080B584B000AF78600A1CBB1C1A803B1C86
:100C90000F3300221A707B681B8A9BB2BA1C128821
:100CA00013409BB2002B04D03B1C0F3301221A705F
:100CB00003E03B1C0F3300221A703B1C0F331B78E0
:100CC000181CBD4604B080BD80B582B000AF78600E
:100CD0000A1CBB1C1A80BB1C1A887B689A61BD4623
:100CE00002B080BD80B582B000AF78600A1CBB1C2A
:100CF0001A807B68BA1C12881A85BD4602B080BD76
:100D000080B500AF1D4B1D4A126801210A431A60CD
:100D10001A4B1A4A5268111C194A0A405A60174B5A
:100D2000164A1268111C174A0A401A60134B134ADC
:100D30001268111C144A0A401A60104B0F4A52687C
:100D4000111C124A0A405A600C4B0C4AD26A0F21FD
:100D50008A43DA62094B094A126B111C0C4A0A4099
:100D60001A63064B054A526B01218A435A63034BAF
:100D700000229A6000F00EF8BD4680BD00100240CF
:100D80000CB8FFF8FFFFF6FEFFFFFBFFFFFFC0FF01
:100D9000ACFEFFFF80B582B000AF00237B60002374
:100DA0003B60334B324A1268802149020A431A6081
:100DB0002F4B1B681A1C80239B0213403B607B68EF
:100DC00001337B603B68002B04D17A68A023DB00F1
:100DD0009A42EDD1264B1B681A1C80239B021340BC
:100DE00002D001233B6001E000233B603B68012B04
:100DF0003BD1204B11221A601D4B1D4A52685A608C
:100E00001B4B1B4A52685A60194B194A5268111CF5
:100E1000194A0A405A60164B154A526888214903FC
:100E20000A435A60124B124A1268802149040A434D
:100E30001A60C0460E4B1B681A1C80239B0413408B
:100E4000F8D00B4B0A4A526803218A435A60084B78
:100E5000074A526802210A435A60C046044B5B6845
:100E60001A1C0C231340082BF8D1BD4602B080BDDC
:100E70000010024000200240FFFFC0FF80B584B098
:100E800000AF78600023FB60344BFB607B689B798C
:100E9000002B53D0314B314A1268111C7A6812680A
:100EA000D2430A401A602D4B2C4A5268111C7A68B2
:100EB0001268D2430A405A607B681B79FA68D318DB
:100EC000FB60FB68FA6811687A6812680A431A6066
:100ED000224B224A9268111C7A681268D2430A4057
:100EE0009A601E4B1D4AD268111C7A681268D24360
:100EF0000A40DA607B685B79102B10D1174B174AD8
:100F00009268111C7A6812680A439A60134B134A5C
:100F1000D268111C7A6812680A43DA601BE00F4B32
:100F2000FB607B685B79FA68D318FB60FB68FA6842
:100F300011687A6812680A431A600CE07B681B79B2
:100F4000FA68D318FB60FB68FA6811687A6812685F
:100F5000D2430A401A60BD4604B080BD000401407F
:100F600080B584B000AF78603B1C0F3300221A704C
:100F70000A4B5B697A68134004D03B1C0F33012293
:100F80001A7003E03B1C0F3300221A703B1C0F3316
:100F90001B78181CBD4604B080BDC046000401404B
:100FA00080B582B000AF7860024B7A685A61BD4666
:100FB00002B080BD00040140B0B584B000AF0A1C8F
:100FC000FB1D011C1970BB1D1A700023FB60BB1DAB
:100FD0001A78032313409B000F22111C99400B1C0D
:100FE000FB60194BBA1D12789208D2B21649B81D8F
:100FF00000788008C0B2023080004158F868C043D1
:10100000014002329200D1500F4BBA1D1278920863
:10101000D2B20D49B81D00788008C0B202308000FD
:101020004158081CF91D0C78B91D0D780321294081
:101030008900251C8D40291C014302329200D150A9
:10104000BD4604B0B0BDC0460000014080B584B0CC
:1010500000AF021CFB1D1A70FB1D1A78164B920084
:10106000D358181C0121FFF74FF8FB1D1A78134BBA
:101070005200D35A1A1C3B1C08331A603B1C08331D
:1010800001221A713B1C083300229A713B1C083361
:101090000022DA713B1C083303225A71FB1D1A78B7
:1010A000074B9200D2583B1C0833101C191CFFF749
:1010B00049FDBD4604B080BDBC13000810000020EF
:1010C0000800002080B582B000AF021CFB1D1A7022
:1010D000FB1D1A780A4B9200D358FA1D1178084A62
:1010E00089008A58928A91B2FA1D1078054A400008
:1010F000825A4A4092B29A82BD4602B080BDC04632
:10110000080000201000002080B588B000AF0A1C45
:10111000FB1D011C1970BB1D1A70FB1D1A783B4B7F
:101120009200D358181C0121FEF7EEFF0120012187
:10113000FFF70AF83B1C183300221A713B1C1833C6
:101140000022DA71FB1D1A78314B5200D35A1A1C57
:101150003B1C18331A60FB1D1A782E4B9200D25894
:101160003B1C1833101C191CFFF7ECFCBB1D1B7833
:10117000012B48D1FB1D1A78274B5200D35ADAB203
:10118000FB1D1978254B4900CB5ADBB2101C191CEA
:10119000FFF712FFFB1D1A78214B5200D35A1A1C7D
:1011A0003B1C10331A603B1C103300221A71FB1DCC
:1011B0001B78002B04D03B1C103308225A7103E02B
:1011C0003B1C10330C225A713B1C103301229A71C4
:1011D0003B1C1033181CFFF751FEFB1D1A78114BF6
:1011E0005200D35ADAB23B1C0C331A703B1C0C333E
:1011F00003225A703B1C0C3301229A703B1C0C33A7
:10120000181C00F011F8BD4608B080BDC8130008D6
:10121000C413000814000020D0130008D4130008E1
:10122000CC130008D813000880B584B000AF7860F4
:101230000023FB607B689B78002B3CD0244B7A68B2
:1012400012789208D2B2C0329200D358FB607B6809
:101250001B781A1C03231340DB00FF22101C98404C
:10126000031CDA43FB681340FB607B685B789A01E0
:10127000FF231A407B681B78191C03230B40DB00FB
:10128000111C99400B1CFA681343FB60104B7A68E1
:1012900012789208D2B2C0329200F968D1500C4B49
:1012A0007A681278111C1F220A400121081C904004
:1012B000021C1A6009E0064A7B681B78191C1F2370
:1012C0000B40012199408023D150BD4604B080BD20
:1012D00000E100E0002941D010B4041C4C40A446B9
:1012E00001230022002900D54942002800D54042B0
:1012F00088422CD301242407A14204D2814202D285
:1013000009011B01F8E7E400A14204D2814202D2A4
:1013100049005B00F8E7884201D3401A1A434C08A1
:10132000A04202D3001B5C0822438C08A04202D3D7
:10133000001B9C082243CC08A04202D3001BDC08FF
:101340002243002803D01B0901D00909E3E7101C40
:101350006446002C00D5404210BC7047002806D0DF
:1013600003DB0020C043400801E08020000607B4F2
:10137000024802A14018029003BDC04619000000B7
:101380000029EBD003B5FFF7A7FF0EBC4243891A33
:101390001847C0467047C0464C6974776F206F6A23
:1013A000637A797A6E6F206D6F0000007479206A1D
:1013B0006573746573000000000000000000080001
:1013C0000000080001000000000002000100000011
:0C13D0000000000000000000050000000C
:1013DC0098130008AC1300080008004800080048E7
:0813EC000002000100000048AE
:0400000508000000EF
:00000001FF
